S01600004932435F534C4156455F417070322E73726563C4
S11300000C9434000C9451000C9451000C94510045
S11300100C9451000C9451000C9451000C94510018
S11300200C9451000C9451000C9451000C94510008
S11300300C9451000C9451000C9451000C945100F8
S11300400C9451000C9451000C9451000C945100E8
S11300500C9451000C9451000C9451000C945100D8
S11300600C9465000C94510011241FBECFEFD8E00E
S1130070DEBFCDBF11E0A0E0B1E0E6EEF2E002C0E9
S113008005900D92A434B107D9F721E0A4E4B1E0BE
S113009001C01D92A335B207E1F70E9466010C94DA
S11300A071010C9400009093C5008093C40088E112
S11300B08093C1008EE28093C200089580E1809312
S11300C0BA0085E48093BC0008951F920F920FB686
S11300D00F9211248F939F93AF93BF93EF93FF934A
S11300E0F8948091B900887F803A09F4C7C028F455
S11300F0803651F0803881F0DAC0883A09F4C2C001
S1130100883B09F4A6C0D3C01092BB0085EC809351
S1130110BC0010924F01CEC08091BB00E0914F0112
S1130120E23040F491E09E0F90934F01F0E0E05BE9
S1130130FE4F808380914F01823009F086C0809108
S113014050018237E1F1833709F072C08091510187
S1130150823389F08333E1F0813339F585B18160ED
S113016085B989E0E0E0F1E0A5E4B1E001900D9209
S11301708A95E1F766C085B1826085B989E0E9E0D6
S1130180F1E0A5E4B1E001900D928A95E1F759C040
S113019085B1846085B989E0E2E1F1E0A5E4B1E0EC
S11301A001900D928A95E1F74CC08AE0EBE1F1E011
S11301B0A5E4B1E001900D928A95E1F742C08091E7
S11301C05101823389F08333E1F0813339F585B10C
S11301D08E7F85B98AE0E5E2F1E0A5E4B1E0019023
S11301E00D928A95E1F72DC085B18D7F85B98AE09E
S11301F0EFE2F1E0A5E4B1E001900D928A95E1F718
S113020020C085B18B7F85B98AE0E9E3F1E0A5E4FC
S1130210B1E001900D928A95E1F713C08AE0EBE119
S1130220F1E0A5E4B1E001900D928A95E1F709C0EF
S11302308AE0EBE1F1E0A5E4B1E001900D928A954A
S1130240E1F710924F011092440185EC8093BC00B9
S113025031C0E0914401EA3058F481E08E0F80937C
S11302604401F0E0EB5BFE4F80818093BB0002C051
S11302701092BB0085EC8093BC001CC085EC80937D
S1130280BC0018C0E0914401EA3058F481E08E0FBC
S113029080934401F0E0EB5BFE4F80818093BB00D0
S11302A002C01092BB0085EC8093BC0003C085ECB7
S11302B08093BC007894FF91EF91BF91AF919F918F
S11302C08F910F900FBE0F901F90189587E690E0C6
S11302D00E9453000E945E0078948FEF84B915B891
S10902E0FFCFF894FFCFEC
S11302E64C45442D312D4F4E004C45442D322D4F57
S11302F64E004C45442D332D4F4E002D2D45525264
S11303064F522D2D004C45442D312D4F4646004C61
S113031645442D322D4F4646004C45442D332D4F32
S10703264646000043
S9030000FC
