S01600004932435F534C4156455F417070322E73726563C4
S11300000C9434000C9451000C9451000C94510045
S11300100C9451000C9451000C9451000C94510018
S11300200C9451000C9451000C9451000C94510008
S11300300C9451000C9451000C9451000C945100F8
S11300400C9451000C9451000C9451000C945100E8
S11300500C9451000C9451000C9451000C945100D8
S11300600C945A000C94510011241FBECFEFD8E019
S1130070DEBFCDBF11E0A0E0B1E0EAE8F2E002C0EB
S113008005900D92A633B107D9F721E0A6E3B1E0BC
S113009001C01D92A534B207E1F70E943C010C9403
S11300A043010C94000080E18093BA0085E48093BE
S11300B0BC0008951F920F920FB60F9211248F93D4
S11300C09F93AF93BF93EF93FF93F8948091B900FC
S11300D0887F803899F018F4803641F0BEC0803AA9
S11300E009F4B7C0883B09F49FC0B7C01092BB00A5
S11300F085EC8093BC0010924101B2C08091BB009A
S1130100E0914101E23040F491E09E0F909341016F
S1130110F0E0EE5BFE4F808380914101823009F074
S11301207FC0809142018237A9F1833709F06BC007
S113013080914301823351F08333A9F0813301F577
S113014085B1816085B91092370166C085B182603E
S113015085B989E0E0E0F1E0A7E3B1E001900D9218
S11301608A95E1F759C085B1846085B989E0E9E0F1
S1130170F1E0A7E3B1E001900D928A95E1F74CC05C
S113018086E0E2E1F1E0A7E3B1E001900D928A9507
S1130190E1F742C080914301823389F08333E1F077
S11301A0813339F585B18E7F85B98AE0E8E1F1E0E4
S11301B0A7E3B1E001900D928A95E1F72DC085B1D6
S11301C08D7F85B98AE0E2E2F1E0A7E3B1E0019036
S11301D00D928A95E1F720C085B18B7F85B98AE0BD
S11301E0ECE2F1E0A7E3B1E001900D928A95E1F72A
S11301F013C086E0E2E1F1E0A7E3B1E001900D92E3
S11302008A95E1F709C086E0E2E1F1E0A7E3B1E015
S113021001900D928A95E1F71092410110923601F6
S113022085EC8093BC001CC0E0913601EA3058F4A0
S113023081E08E0F80933601F0E0E95CFE4F80810F
S11302408093BB0002C01092BB0085EC8093BC007D
S113025007C085EC8093BC0003C085EC8093BC0090
S11302607894FF91EF91BF91AF919F918F910F90EF
S11302700FBE0F901F9018950E94530078948FEF33
S10D028084B915B8FFCFF894FFCF3E
S113028A4C45442D322D4F4E004C45442D332D4FB1
S113029A4E004552524F52004C45442D312D4F4683
S11302AA46004C45442D322D4F4646004C45442DBC
S10902BA332D4F464600FF
S9030000FC
